:020000000328D3
:10000600831603130710871006148614FC30831218
:1000160087050608F100711C2D280330870403307C
:10002600FB000830FC007730FD00FD0B1828FC0BA8
:100036001828FB0B1828FC3087050330FB00083016
:10004600FC007730FD00FD0B2628FC0B2628FB0B59
:10005600262856280608F100F10CF113711C5428C5
:10006600033087040630FB001330FC00AD30FD0082
:10007600FD0B3B28FC0B3B28FB0B3B28000000003C
:10008600FC3087050630FB001330FC00AD30FD0068
:10009600FD0B4B28FC0B4B28FB0B4B2800000000EC
:0A00A6005628FC3087050C28572867
:02400E004A2F37
:00000001FF
