:02000000702965
:10000800FF00030E8301A7000A08A8008A017008F0
:10001800A1007108A0008B1C32282208F1002308D7
:10002800F2002408F3002508F4000030F0007406FC
:10003800031D282870087306031D282870087206F7
:10004800031D28287108003A031931282208A50041
:100058002308A6004E218A110A128B10831203135B
:100068002108F0002008F10028088A00270E8300E4
:06007800FF0E7F0E0900DF
:10007E000E29831203132E08003A031D56282D084D
:10008E00F1000130F000710803195128F00D7010C5
:10009E00FF3E4B28F00970088316850569288312E8
:1000AE002E08013A031D69282D08F1000130F000D9
:1000BE00710803196628F00D7010FF3E6028700855
:1000CE0083168504242983122E08003A031D7F28E7
:1000DE002D08F1000130F000710803197A28F00D97
:1000EE007010FF3E7428F00970088316860592285A
:1000FE0083122E08013A031D92282D08F1000130BB
:10010E00F000710803198F28F00D7010FF3E89283A
:10011E00700883168604242983122E08003A031DC4
:10012E00A8282D08F1000130F00071080319A3284A
:10013E00F00D7010FF3E9D28F0097008831687059C
:10014E00BB2883122E08013A031DBB282D08F1008F
:10015E000130F00071080319B828F00D7010FF3E41
:10016E00B228700883168704242983122E08003AB9
:10017E00031DD1282D08F1000130F000710803197C
:10018E00CC28F00D7010FF3EC628F00970088316BB
:10019E008805E42883122E08013A031DE4282D0851
:1001AE00F1000130F00071080319E128F00D701014
:1001BE00FF3EDB28700883168804242983122E083C
:1001CE00003A031DFA282D08F1000130F0007108E5
:1001DE000319F528F00D7010FF3EEF28F009700896
:1001EE00831689050D2983122E08013A031D0D2948
:1001FE002D08F1000130F000710803190A29F00DE5
:10020E007010FF3E04297008831689042429831276
:10021E0003132C08003A031940282C08013A03193D
:10022E006A282C08023A031993282C08033A03195A
:0C023E00BC282C08043A0319E52808002D
:0E024A008312031326088A002508820008008C
:1002580025218A110A128000840AA50A0319A60A10
:08026800F003031D2C2908001E
:10027000831203132908AC002A08AD00AE013F2009
:02028000080074
:060282000B168B170800AB
:10028800013083120313AC00AD010130AE003F20F2
:040298008B100800BF
:0E029C008312031326088A002508820008003A
:1002AA00831203132908A2002A08A3002B08A4001A
:0402BA002C08080004
:1002BE00831203132908013A031D682983160117B7
:0802CE006A29831601130800E0
:0A02D60001308312031387060800AD
:1002E0009221023083120313A900AA01382144216C
:1002F000013083120313A9005F216B308312A90020
:100300000130AA000030AB0000305521412187297F
:0203100088293A
:1003240022308400033083120313F0008E30A500C2
:080334000130A6002C21080095
:06031C000034003400343F
:02400E007A3BFB
:00000001FF
